{
  "contractName": "DemoToken",
  "abi": [
    {
      "constant": false,
      "inputs": [
        {
          "name": "_spender",
          "type": "address"
        },
        {
          "name": "_value",
          "type": "uint256"
        }
      ],
      "name": "approve",
      "outputs": [
        {
          "name": "",
          "type": "bool"
        }
      ],
      "payable": false,
      "stateMutability": "nonpayable",
      "type": "function"
    },
    {
      "constant": true,
      "inputs": [],
      "name": "totalSupply",
      "outputs": [
        {
          "name": "",
          "type": "uint256"
        }
      ],
      "payable": false,
      "stateMutability": "view",
      "type": "function"
    },
    {
      "constant": false,
      "inputs": [
        {
          "name": "_from",
          "type": "address"
        },
        {
          "name": "_to",
          "type": "address"
        },
        {
          "name": "_value",
          "type": "uint256"
        }
      ],
      "name": "transferFrom",
      "outputs": [
        {
          "name": "",
          "type": "bool"
        }
      ],
      "payable": false,
      "stateMutability": "nonpayable",
      "type": "function"
    },
    {
      "constant": true,
      "inputs": [],
      "name": "decimals",
      "outputs": [
        {
          "name": "",
          "type": "uint8"
        }
      ],
      "payable": false,
      "stateMutability": "view",
      "type": "function"
    },
    {
      "constant": false,
      "inputs": [
        {
          "name": "_spender",
          "type": "address"
        },
        {
          "name": "_subtractedValue",
          "type": "uint256"
        }
      ],
      "name": "decreaseApproval",
      "outputs": [
        {
          "name": "",
          "type": "bool"
        }
      ],
      "payable": false,
      "stateMutability": "nonpayable",
      "type": "function"
    },
    {
      "constant": true,
      "inputs": [
        {
          "name": "_owner",
          "type": "address"
        }
      ],
      "name": "balanceOf",
      "outputs": [
        {
          "name": "",
          "type": "uint256"
        }
      ],
      "payable": false,
      "stateMutability": "view",
      "type": "function"
    },
    {
      "constant": false,
      "inputs": [
        {
          "name": "_to",
          "type": "address"
        },
        {
          "name": "_value",
          "type": "uint256"
        }
      ],
      "name": "transfer",
      "outputs": [
        {
          "name": "",
          "type": "bool"
        }
      ],
      "payable": false,
      "stateMutability": "nonpayable",
      "type": "function"
    },
    {
      "constant": false,
      "inputs": [
        {
          "name": "_spender",
          "type": "address"
        },
        {
          "name": "_addedValue",
          "type": "uint256"
        }
      ],
      "name": "increaseApproval",
      "outputs": [
        {
          "name": "",
          "type": "bool"
        }
      ],
      "payable": false,
      "stateMutability": "nonpayable",
      "type": "function"
    },
    {
      "constant": true,
      "inputs": [
        {
          "name": "_owner",
          "type": "address"
        },
        {
          "name": "_spender",
          "type": "address"
        }
      ],
      "name": "allowance",
      "outputs": [
        {
          "name": "",
          "type": "uint256"
        }
      ],
      "payable": false,
      "stateMutability": "view",
      "type": "function"
    },
    {
      "inputs": [],
      "payable": false,
      "stateMutability": "nonpayable",
      "type": "constructor"
    },
    {
      "anonymous": false,
      "inputs": [
        {
          "indexed": true,
          "name": "owner",
          "type": "address"
        },
        {
          "indexed": true,
          "name": "spender",
          "type": "address"
        },
        {
          "indexed": false,
          "name": "value",
          "type": "uint256"
        }
      ],
      "name": "Approval",
      "type": "event"
    },
    {
      "anonymous": false,
      "inputs": [
        {
          "indexed": true,
          "name": "from",
          "type": "address"
        },
        {
          "indexed": true,
          "name": "to",
          "type": "address"
        },
        {
          "indexed": false,
          "name": "value",
          "type": "uint256"
        }
      ],
      "name": "Transfer",
      "type": "event"
    },
    {
      "constant": false,
      "inputs": [
        {
          "name": "to",
          "type": "address"
        },
        {
          "name": "amount",
          "type": "uint256"
        }
      ],
      "name": "mint",
      "outputs": [],
      "payable": false,
      "stateMutability": "nonpayable",
      "type": "function"
    },
    {
      "constant": false,
      "inputs": [
        {
          "name": "dsts",
          "type": "address[]"
        },
        {
          "name": "amounts",
          "type": "uint256[]"
        }
      ],
      "name": "batchMint",
      "outputs": [],
      "payable": false,
      "stateMutability": "nonpayable",
      "type": "function"
    }
  ],
  "bytecode": "0x608060405234801561001057600080fd5b50610940806100206000396000f3006080604052600436106100ae5763ffffffff7c0100000000000000000000000000000000000000000000000000000000600035041663095ea7b381146100b357806318160ddd146100eb57806323b872dd14610112578063313ce5671461013c57806340c10f1914610167578063661884631461018d57806368573107146101b157806370a08231146101dd578063a9059cbb146101fe578063d73dd62314610222578063dd62ed3e14610246575b600080fd5b3480156100bf57600080fd5b506100d7600160a060020a036004351660243561026d565b604080519115158252519081900360200190f35b3480156100f757600080fd5b506101006102d3565b60408051918252519081900360200190f35b34801561011e57600080fd5b506100d7600160a060020a03600435811690602435166044356102d9565b34801561014857600080fd5b5061015161043e565b6040805160ff9092168252519081900360200190f35b34801561017357600080fd5b5061018b600160a060020a0360043516602435610443565b005b34801561019957600080fd5b506100d7600160a060020a03600435166024356104c5565b3480156101bd57600080fd5b5061018b60246004803582810192908201359181359182019101356105b5565b3480156101e957600080fd5b50610100600160a060020a0360043516610721565b34801561020a57600080fd5b506100d7600160a060020a036004351660243561073c565b34801561022e57600080fd5b506100d7600160a060020a036004351660243561080b565b34801561025257600080fd5b50610100600160a060020a03600435811690602435166108a4565b336000818152600260209081526040808320600160a060020a038716808552908352818420869055815186815291519394909390927f8c5be1e5ebec7d5bd14f71427d1e84f3dd0314c0f7b2291e5b200ac8c7c3b925928290030190a350600192915050565b60015490565b6000600160a060020a03831615156102f057600080fd5b600160a060020a03841660009081526020819052604090205482111561031557600080fd5b600160a060020a038416600090815260026020908152604080832033845290915290205482111561034557600080fd5b600160a060020a03841660009081526020819052604090205461036e908363ffffffff6108cf16565b600160a060020a0380861660009081526020819052604080822093909355908516815220546103a3908363ffffffff6108e116565b600160a060020a038085166000908152602081815260408083209490945591871681526002825282812033825290915220546103e5908363ffffffff6108cf16565b600160a060020a03808616600081815260026020908152604080832033845282529182902094909455805186815290519287169391926000805160206108f5833981519152929181900390910190a35060019392505050565b601281565b60015481810111156104585760018054820190555b600160a060020a038216600090815260208190526040902054610481908263ffffffff6108e116565b600160a060020a0383166000818152602081815260408083209490945583518581529351929391926000805160206108f58339815191529281900390910190a35050565b336000908152600260209081526040808320600160a060020a03861684529091528120548083111561051a57336000908152600260209081526040808320600160a060020a038816845290915281205561054f565b61052a818463ffffffff6108cf16565b336000908152600260209081526040808320600160a060020a03891684529091529020555b336000818152600260209081526040808320600160a060020a0389168085529083529281902054815190815290519293927f8c5be1e5ebec7d5bd14f71427d1e84f3dd0314c0f7b2291e5b200ac8c7c3b925929181900390910190a35060019392505050565b60008382146105c357600080fd5b5060005b8381101561071a576001548383838181106105de57fe5b90506020020135600154011115610613578282828181106105fb57fe5b6001805460209092029390930135019091555061061a565b6000196001555b61068083838381811061062957fe5b90506020020135600080888886818110151561064157fe5b90506020020135600160a060020a0316600160a060020a0316600160a060020a03168152602001908152602001600020546108e190919063ffffffff16565b60008087878581811061068f57fe5b60209081029290920135600160a060020a0316835250810191909152604001600020558484828181106106be57fe5b90506020020135600160a060020a0316600160a060020a031660006000805160206108f583398151915285858581811015156106f657fe5b905060200201356040518082815260200191505060405180910390a36001016105c7565b5050505050565b600160a060020a031660009081526020819052604090205490565b6000600160a060020a038316151561075357600080fd5b3360009081526020819052604090205482111561076f57600080fd5b3360009081526020819052604090205461078f908363ffffffff6108cf16565b3360009081526020819052604080822092909255600160a060020a038516815220546107c1908363ffffffff6108e116565b600160a060020a038416600081815260208181526040918290209390935580518581529051919233926000805160206108f58339815191529281900390910190a350600192915050565b336000908152600260209081526040808320600160a060020a038616845290915281205461083f908363ffffffff6108e116565b336000818152600260209081526040808320600160a060020a0389168085529083529281902085905580519485525191937f8c5be1e5ebec7d5bd14f71427d1e84f3dd0314c0f7b2291e5b200ac8c7c3b925929081900390910190a350600192915050565b600160a060020a03918216600090815260026020908152604080832093909416825291909152205490565b6000828211156108db57fe5b50900390565b818101828110156108ee57fe5b929150505600ddf252ad1be2c89b69c2b068fc378daa952ba7f163c4a11628f55a4df523b3efa165627a7a72305820bb10fdbdc549dcbefb3c8dc97ace203f9c2d999386fc4cf555ecc78abf7a87c00029",
  "source": "pragma solidity ^0.4.24;\n\nimport '../base/StandardToken.sol';\nimport '../base/SafeMath.sol';\nimport '../base/Math.sol';\n\n/// @title Mintable token used for tests and demos.\ncontract DemoToken is StandardToken {\n\tusing SafeMath for uint256;\n\n\tuint8 public constant decimals = 18;\n\n\tconstructor() public {}\n\n\tfunction mint(address to, uint256 amount) external {\n\t\tif (totalSupply_ + amount > totalSupply_)\n\t\t\ttotalSupply_ += amount;\n\t\tbalances[to] = balances[to].add(amount);\n\t\temit Transfer(0x0, to, amount);\n\t}\n\n\tfunction batchMint(address[] dsts, uint256[] amounts) external {\n\t\trequire(dsts.length == amounts.length);\n\t\tfor (uint256 i = 0; i < dsts.length; i++) {\n\t\t\tif (totalSupply_ + amounts[i] > totalSupply_)\n\t\t\t\ttotalSupply_ += amounts[i];\n\t\t\telse\n\t\t\t\ttotalSupply_ = uint256(-1);\n\t\t\tbalances[dsts[i]] = balances[dsts[i]].add(amounts[i]);\n\t\t\temit Transfer(0x0, dsts[i], amounts[i]);\n\t\t}\n\t}\n}\n",
  "sourcePath": "/home/cluracan/code/arigo/arigo-contracts/contracts/test/DemoToken.sol",
  "compiler": {
    "name": "solc",
    "version": "0.4.24+commit.e67f0147.Emscripten.clang"
  },
  "schemaVersion": "2.0.1",
  "updatedAt": "2018-08-24T19:48:42.463Z"
}