{
	"contractName": "DemoToken",
	"abi": [
		{
			"constant": false,
			"inputs": [
				{
					"name": "_spender",
					"type": "address"
				},
				{
					"name": "_value",
					"type": "uint256"
				}
			],
			"name": "approve",
			"outputs": [
				{
					"name": "",
					"type": "bool"
				}
			],
			"payable": false,
			"stateMutability": "nonpayable",
			"type": "function"
		},
		{
			"constant": true,
			"inputs": [],
			"name": "totalSupply",
			"outputs": [
				{
					"name": "",
					"type": "uint256"
				}
			],
			"payable": false,
			"stateMutability": "view",
			"type": "function"
		},
		{
			"constant": false,
			"inputs": [
				{
					"name": "_from",
					"type": "address"
				},
				{
					"name": "_to",
					"type": "address"
				},
				{
					"name": "_value",
					"type": "uint256"
				}
			],
			"name": "transferFrom",
			"outputs": [
				{
					"name": "",
					"type": "bool"
				}
			],
			"payable": false,
			"stateMutability": "nonpayable",
			"type": "function"
		},
		{
			"constant": false,
			"inputs": [
				{
					"name": "_spender",
					"type": "address"
				},
				{
					"name": "_subtractedValue",
					"type": "uint256"
				}
			],
			"name": "decreaseApproval",
			"outputs": [
				{
					"name": "",
					"type": "bool"
				}
			],
			"payable": false,
			"stateMutability": "nonpayable",
			"type": "function"
		},
		{
			"constant": true,
			"inputs": [
				{
					"name": "_owner",
					"type": "address"
				}
			],
			"name": "balanceOf",
			"outputs": [
				{
					"name": "",
					"type": "uint256"
				}
			],
			"payable": false,
			"stateMutability": "view",
			"type": "function"
		},
		{
			"constant": false,
			"inputs": [
				{
					"name": "_to",
					"type": "address"
				},
				{
					"name": "_value",
					"type": "uint256"
				}
			],
			"name": "transfer",
			"outputs": [
				{
					"name": "",
					"type": "bool"
				}
			],
			"payable": false,
			"stateMutability": "nonpayable",
			"type": "function"
		},
		{
			"constant": false,
			"inputs": [
				{
					"name": "_spender",
					"type": "address"
				},
				{
					"name": "_addedValue",
					"type": "uint256"
				}
			],
			"name": "increaseApproval",
			"outputs": [
				{
					"name": "",
					"type": "bool"
				}
			],
			"payable": false,
			"stateMutability": "nonpayable",
			"type": "function"
		},
		{
			"constant": true,
			"inputs": [
				{
					"name": "_owner",
					"type": "address"
				},
				{
					"name": "_spender",
					"type": "address"
				}
			],
			"name": "allowance",
			"outputs": [
				{
					"name": "",
					"type": "uint256"
				}
			],
			"payable": false,
			"stateMutability": "view",
			"type": "function"
		},
		{
			"inputs": [],
			"payable": false,
			"stateMutability": "nonpayable",
			"type": "constructor"
		},
		{
			"anonymous": false,
			"inputs": [
				{
					"indexed": true,
					"name": "owner",
					"type": "address"
				},
				{
					"indexed": true,
					"name": "spender",
					"type": "address"
				},
				{
					"indexed": false,
					"name": "value",
					"type": "uint256"
				}
			],
			"name": "Approval",
			"type": "event"
		},
		{
			"anonymous": false,
			"inputs": [
				{
					"indexed": true,
					"name": "from",
					"type": "address"
				},
				{
					"indexed": true,
					"name": "to",
					"type": "address"
				},
				{
					"indexed": false,
					"name": "value",
					"type": "uint256"
				}
			],
			"name": "Transfer",
			"type": "event"
		},
		{
			"constant": false,
			"inputs": [
				{
					"name": "to",
					"type": "address"
				},
				{
					"name": "amount",
					"type": "uint256"
				}
			],
			"name": "mint",
			"outputs": [],
			"payable": false,
			"stateMutability": "nonpayable",
			"type": "function"
		},
		{
			"constant": false,
			"inputs": [
				{
					"name": "dsts",
					"type": "address[]"
				},
				{
					"name": "amounts",
					"type": "uint256[]"
				}
			],
			"name": "batchMint",
			"outputs": [],
			"payable": false,
			"stateMutability": "nonpayable",
			"type": "function"
		}
	],
	"bytecode": "0x608060405234801561001057600080fd5b50610905806100206000396000f3006080604052600436106100a35763ffffffff7c0100000000000000000000000000000000000000000000000000000000600035041663095ea7b381146100a857806318160ddd146100e057806323b872dd1461010757806340c10f19146101315780636618846314610157578063685731071461017b57806370a08231146101a7578063a9059cbb146101c8578063d73dd623146101ec578063dd62ed3e14610210575b600080fd5b3480156100b457600080fd5b506100cc600160a060020a0360043516602435610237565b604080519115158252519081900360200190f35b3480156100ec57600080fd5b506100f561029d565b60408051918252519081900360200190f35b34801561011357600080fd5b506100cc600160a060020a03600435811690602435166044356102a3565b34801561013d57600080fd5b50610155600160a060020a0360043516602435610408565b005b34801561016357600080fd5b506100cc600160a060020a036004351660243561048a565b34801561018757600080fd5b50610155602460048035828101929082013591813591820191013561057a565b3480156101b357600080fd5b506100f5600160a060020a03600435166106e6565b3480156101d457600080fd5b506100cc600160a060020a0360043516602435610701565b3480156101f857600080fd5b506100cc600160a060020a03600435166024356107d0565b34801561021c57600080fd5b506100f5600160a060020a0360043581169060243516610869565b336000818152600260209081526040808320600160a060020a038716808552908352818420869055815186815291519394909390927f8c5be1e5ebec7d5bd14f71427d1e84f3dd0314c0f7b2291e5b200ac8c7c3b925928290030190a350600192915050565b60015490565b6000600160a060020a03831615156102ba57600080fd5b600160a060020a0384166000908152602081905260409020548211156102df57600080fd5b600160a060020a038416600090815260026020908152604080832033845290915290205482111561030f57600080fd5b600160a060020a038416600090815260208190526040902054610338908363ffffffff61089416565b600160a060020a03808616600090815260208190526040808220939093559085168152205461036d908363ffffffff6108a616565b600160a060020a038085166000908152602081815260408083209490945591871681526002825282812033825290915220546103af908363ffffffff61089416565b600160a060020a03808616600081815260026020908152604080832033845282529182902094909455805186815290519287169391926000805160206108ba833981519152929181900390910190a35060019392505050565b600154818101111561041d5760018054820190555b600160a060020a038216600090815260208190526040902054610446908263ffffffff6108a616565b600160a060020a0383166000818152602081815260408083209490945583518581529351929391926000805160206108ba8339815191529281900390910190a35050565b336000908152600260209081526040808320600160a060020a0386168452909152812054808311156104df57336000908152600260209081526040808320600160a060020a0388168452909152812055610514565b6104ef818463ffffffff61089416565b336000908152600260209081526040808320600160a060020a03891684529091529020555b336000818152600260209081526040808320600160a060020a0389168085529083529281902054815190815290519293927f8c5be1e5ebec7d5bd14f71427d1e84f3dd0314c0f7b2291e5b200ac8c7c3b925929181900390910190a35060019392505050565b600083821461058857600080fd5b5060005b838110156106df576001548383838181106105a357fe5b905060200201356001540111156105d8578282828181106105c057fe5b600180546020909202939093013501909155506105df565b6000196001555b6106458383838181106105ee57fe5b90506020020135600080888886818110151561060657fe5b90506020020135600160a060020a0316600160a060020a0316600160a060020a03168152602001908152602001600020546108a690919063ffffffff16565b60008087878581811061065457fe5b60209081029290920135600160a060020a03168352508101919091526040016000205584848281811061068357fe5b90506020020135600160a060020a0316600160a060020a031660006000805160206108ba83398151915285858581811015156106bb57fe5b905060200201356040518082815260200191505060405180910390a360010161058c565b5050505050565b600160a060020a031660009081526020819052604090205490565b6000600160a060020a038316151561071857600080fd5b3360009081526020819052604090205482111561073457600080fd5b33600090815260208190526040902054610754908363ffffffff61089416565b3360009081526020819052604080822092909255600160a060020a03851681522054610786908363ffffffff6108a616565b600160a060020a038416600081815260208181526040918290209390935580518581529051919233926000805160206108ba8339815191529281900390910190a350600192915050565b336000908152600260209081526040808320600160a060020a0386168452909152812054610804908363ffffffff6108a616565b336000818152600260209081526040808320600160a060020a0389168085529083529281902085905580519485525191937f8c5be1e5ebec7d5bd14f71427d1e84f3dd0314c0f7b2291e5b200ac8c7c3b925929081900390910190a350600192915050565b600160a060020a03918216600090815260026020908152604080832093909416825291909152205490565b6000828211156108a057fe5b50900390565b818101828110156108b357fe5b929150505600ddf252ad1be2c89b69c2b068fc378daa952ba7f163c4a11628f55a4df523b3efa165627a7a72305820c1ebfb692101a48c4b44b3081d6b9dca52bf2805c3d13b3c05a97213d73b658b0029",
	"source": "pragma solidity ^0.4.24;\n\nimport '../base/StandardToken.sol';\nimport '../base/SafeMath.sol';\nimport '../base/Math.sol';\n\n/// @title Mintable token used for tests and demos.\ncontract DemoToken is StandardToken {\n\tusing SafeMath for uint256;\n\n\tconstructor() public {}\n\n\tfunction mint(address to, uint256 amount) external {\n\t\tif (totalSupply_ + amount > totalSupply_)\n\t\t\ttotalSupply_ += amount;\n\t\tbalances[to] = balances[to].add(amount);\n\t\temit Transfer(0x0, to, amount);\n\t}\n\n\tfunction batchMint(address[] dsts, uint256[] amounts) external {\n\t\trequire(dsts.length == amounts.length);\n\t\tfor (uint256 i = 0; i < dsts.length; i++) {\n\t\t\tif (totalSupply_ + amounts[i] > totalSupply_)\n\t\t\t\ttotalSupply_ += amounts[i];\n\t\t\telse\n\t\t\t\ttotalSupply_ = uint256(-1);\n\t\t\tbalances[dsts[i]] = balances[dsts[i]].add(amounts[i]);\n\t\t\temit Transfer(0x0, dsts[i], amounts[i]);\n\t\t}\n\t}\n}\n",
	"sourcePath": "/home/cluracan/code/arigo/arigo-contracts/contracts/test/DemoToken.sol",
	"compiler": {
		"name": "solc",
		"version": "0.4.24+commit.e67f0147.Emscripten.clang"
	},
	"schemaVersion": "2.0.1",
	"updatedAt": "2018-07-23T16:53:13.858Z"
}